{
  "_format": "hh-sol-artifact-1",
  "contractName": "Shavaxre",
  "sourceName": "contracts/Shavaxre.sol",
  "abi": [
    {
      "inputs": [],
      "stateMutability": "nonpayable",
      "type": "constructor"
    },
    {
      "anonymous": false,
      "inputs": [
        {
          "indexed": true,
          "internalType": "uint256",
          "name": "id",
          "type": "uint256"
        },
        {
          "indexed": true,
          "internalType": "address",
          "name": "student",
          "type": "address"
        },
        {
          "indexed": false,
          "internalType": "string",
          "name": "title",
          "type": "string"
        },
        {
          "indexed": false,
          "internalType": "uint256",
          "name": "goal",
          "type": "uint256"
        },
        {
          "indexed": false,
          "internalType": "uint256",
          "name": "deadline",
          "type": "uint256"
        }
      ],
      "name": "CampaignCreated",
      "type": "event"
    },
    {
      "anonymous": false,
      "inputs": [
        {
          "indexed": true,
          "internalType": "address",
          "name": "corporate",
          "type": "address"
        },
        {
          "indexed": false,
          "internalType": "uint256",
          "name": "amount",
          "type": "uint256"
        },
        {
          "indexed": false,
          "internalType": "uint256",
          "name": "multiplier",
          "type": "uint256"
        }
      ],
      "name": "CorporatePoolFunded",
      "type": "event"
    },
    {
      "anonymous": false,
      "inputs": [
        {
          "indexed": true,
          "internalType": "uint256",
          "name": "id",
          "type": "uint256"
        },
        {
          "indexed": true,
          "internalType": "address",
          "name": "donor",
          "type": "address"
        },
        {
          "indexed": false,
          "internalType": "uint256",
          "name": "amount",
          "type": "uint256"
        }
      ],
      "name": "DonationReceived",
      "type": "event"
    },
    {
      "anonymous": false,
      "inputs": [
        {
          "indexed": true,
          "internalType": "uint256",
          "name": "id",
          "type": "uint256"
        },
        {
          "indexed": true,
          "internalType": "address",
          "name": "student",
          "type": "address"
        },
        {
          "indexed": false,
          "internalType": "uint256",
          "name": "amount",
          "type": "uint256"
        }
      ],
      "name": "FundsClaimed",
      "type": "event"
    },
    {
      "anonymous": false,
      "inputs": [
        {
          "indexed": true,
          "internalType": "uint256",
          "name": "id",
          "type": "uint256"
        },
        {
          "indexed": true,
          "internalType": "address",
          "name": "corporate",
          "type": "address"
        },
        {
          "indexed": false,
          "internalType": "uint256",
          "name": "matchAmount",
          "type": "uint256"
        }
      ],
      "name": "MatchedDonation",
      "type": "event"
    },
    {
      "inputs": [],
      "name": "campaignCount",
      "outputs": [
        {
          "internalType": "uint256",
          "name": "",
          "type": "uint256"
        }
      ],
      "stateMutability": "view",
      "type": "function"
    },
    {
      "inputs": [
        {
          "internalType": "uint256",
          "name": "",
          "type": "uint256"
        }
      ],
      "name": "campaigns",
      "outputs": [
        {
          "internalType": "address payable",
          "name": "student",
          "type": "address"
        },
        {
          "internalType": "string",
          "name": "title",
          "type": "string"
        },
        {
          "internalType": "string",
          "name": "description",
          "type": "string"
        },
        {
          "internalType": "string",
          "name": "category",
          "type": "string"
        },
        {
          "internalType": "uint256",
          "name": "goalAmount",
          "type": "uint256"
        },
        {
          "internalType": "uint256",
          "name": "raisedAmount",
          "type": "uint256"
        },
        {
          "internalType": "uint256",
          "name": "deadline",
          "type": "uint256"
        },
        {
          "internalType": "bool",
          "name": "active",
          "type": "bool"
        },
        {
          "internalType": "bool",
          "name": "claimed",
          "type": "bool"
        },
        {
          "internalType": "uint256",
          "name": "donorCount",
          "type": "uint256"
        }
      ],
      "stateMutability": "view",
      "type": "function"
    },
    {
      "inputs": [
        {
          "internalType": "uint256",
          "name": "_id",
          "type": "uint256"
        }
      ],
      "name": "claimFunds",
      "outputs": [],
      "stateMutability": "nonpayable",
      "type": "function"
    },
    {
      "inputs": [
        {
          "internalType": "address",
          "name": "",
          "type": "address"
        }
      ],
      "name": "corporateMatchPool",
      "outputs": [
        {
          "internalType": "uint256",
          "name": "",
          "type": "uint256"
        }
      ],
      "stateMutability": "view",
      "type": "function"
    },
    {
      "inputs": [
        {
          "internalType": "string",
          "name": "_title",
          "type": "string"
        },
        {
          "internalType": "string",
          "name": "_description",
          "type": "string"
        },
        {
          "internalType": "string",
          "name": "_category",
          "type": "string"
        },
        {
          "internalType": "uint256",
          "name": "_goalAmount",
          "type": "uint256"
        },
        {
          "internalType": "uint256",
          "name": "_durationDays",
          "type": "uint256"
        }
      ],
      "name": "createCampaign",
      "outputs": [],
      "stateMutability": "nonpayable",
      "type": "function"
    },
    {
      "inputs": [
        {
          "internalType": "uint256",
          "name": "_id",
          "type": "uint256"
        }
      ],
      "name": "donate",
      "outputs": [],
      "stateMutability": "payable",
      "type": "function"
    },
    {
      "inputs": [
        {
          "internalType": "uint256",
          "name": "",
          "type": "uint256"
        },
        {
          "internalType": "address",
          "name": "",
          "type": "address"
        }
      ],
      "name": "donations",
      "outputs": [
        {
          "internalType": "uint256",
          "name": "",
          "type": "uint256"
        }
      ],
      "stateMutability": "view",
      "type": "function"
    },
    {
      "inputs": [
        {
          "internalType": "uint256",
          "name": "_multiplier",
          "type": "uint256"
        }
      ],
      "name": "fundMatchingPool",
      "outputs": [],
      "stateMutability": "payable",
      "type": "function"
    },
    {
      "inputs": [],
      "name": "getActiveCampaigns",
      "outputs": [
        {
          "components": [
            {
              "internalType": "address payable",
              "name": "student",
              "type": "address"
            },
            {
              "internalType": "string",
              "name": "title",
              "type": "string"
            },
            {
              "internalType": "string",
              "name": "description",
              "type": "string"
            },
            {
              "internalType": "string",
              "name": "category",
              "type": "string"
            },
            {
              "internalType": "uint256",
              "name": "goalAmount",
              "type": "uint256"
            },
            {
              "internalType": "uint256",
              "name": "raisedAmount",
              "type": "uint256"
            },
            {
              "internalType": "uint256",
              "name": "deadline",
              "type": "uint256"
            },
            {
              "internalType": "bool",
              "name": "active",
              "type": "bool"
            },
            {
              "internalType": "bool",
              "name": "claimed",
              "type": "bool"
            },
            {
              "internalType": "uint256",
              "name": "donorCount",
              "type": "uint256"
            }
          ],
          "internalType": "struct Shavaxre.Campaign[]",
          "name": "",
          "type": "tuple[]"
        },
        {
          "internalType": "uint256[]",
          "name": "",
          "type": "uint256[]"
        }
      ],
      "stateMutability": "view",
      "type": "function"
    },
    {
      "inputs": [
        {
          "internalType": "uint256",
          "name": "_id",
          "type": "uint256"
        }
      ],
      "name": "getCampaign",
      "outputs": [
        {
          "components": [
            {
              "internalType": "address payable",
              "name": "student",
              "type": "address"
            },
            {
              "internalType": "string",
              "name": "title",
              "type": "string"
            },
            {
              "internalType": "string",
              "name": "description",
              "type": "string"
            },
            {
              "internalType": "string",
              "name": "category",
              "type": "string"
            },
            {
              "internalType": "uint256",
              "name": "goalAmount",
              "type": "uint256"
            },
            {
              "internalType": "uint256",
              "name": "raisedAmount",
              "type": "uint256"
            },
            {
              "internalType": "uint256",
              "name": "deadline",
              "type": "uint256"
            },
            {
              "internalType": "bool",
              "name": "active",
              "type": "bool"
            },
            {
              "internalType": "bool",
              "name": "claimed",
              "type": "bool"
            },
            {
              "internalType": "uint256",
              "name": "donorCount",
              "type": "uint256"
            }
          ],
          "internalType": "struct Shavaxre.Campaign",
          "name": "",
          "type": "tuple"
        }
      ],
      "stateMutability": "view",
      "type": "function"
    },
    {
      "inputs": [
        {
          "internalType": "uint256",
          "name": "_id",
          "type": "uint256"
        },
        {
          "internalType": "address",
          "name": "_donor",
          "type": "address"
        }
      ],
      "name": "getDonation",
      "outputs": [
        {
          "internalType": "uint256",
          "name": "",
          "type": "uint256"
        }
      ],
      "stateMutability": "view",
      "type": "function"
    },
    {
      "inputs": [
        {
          "internalType": "uint256",
          "name": "_id",
          "type": "uint256"
        },
        {
          "internalType": "address",
          "name": "_corporate",
          "type": "address"
        },
        {
          "internalType": "uint256",
          "name": "_donationAmount",
          "type": "uint256"
        }
      ],
      "name": "matchDonation",
      "outputs": [],
      "stateMutability": "nonpayable",
      "type": "function"
    },
    {
      "inputs": [
        {
          "internalType": "address",
          "name": "",
          "type": "address"
        }
      ],
      "name": "matchMultiplier",
      "outputs": [
        {
          "internalType": "uint256",
          "name": "",
          "type": "uint256"
        }
      ],
      "stateMutability": "view",
      "type": "function"
    },
    {
      "inputs": [],
      "name": "owner",
      "outputs": [
        {
          "internalType": "address",
          "name": "",
          "type": "address"
        }
      ],
      "stateMutability": "view",
      "type": "function"
    }
  ],
  "bytecode": "0x608060405234801561001057600080fd5b50600580546001600160a01b03191633179055611bbd806100326000396000f3fe6080604052600436106100dd5760003560e01c8063980f2e661161007f578063c362b15611610059578063c362b15614610279578063c6fd5f571461029c578063ee1554a3146102bc578063f14faf6f146102f457600080fd5b8063980f2e6614610226578063a9aa57d414610246578063c2bacfa81461025957600080fd5b80635598f8cc116100bb5780635598f8cc1461017e5780637274e30d146101ab57806380ceca56146101c15780638da5cb5b146101ee57600080fd5b8063141961bc146100e25780631b55e3381461012157806320a917e114610143575b600080fd5b3480156100ee57600080fd5b506101026100fd366004611548565b610307565b6040516101189a999897969594939291906115a7565b60405180910390f35b34801561012d57600080fd5b5061014161013c366004611548565b6104ff565b005b34801561014f57600080fd5b5061017061015e366004611649565b60036020526000908152604090205481565b604051908152602001610118565b34801561018a57600080fd5b5061019e610199366004611548565b610711565b604051610118919061171d565b3480156101b757600080fd5b5061017060005481565b3480156101cd57600080fd5b506101706101dc366004611649565b60046020526000908152604090205481565b3480156101fa57600080fd5b5060055461020e906001600160a01b031681565b6040516001600160a01b039091168152602001610118565b34801561023257600080fd5b50610141610241366004611779565b61096d565b610141610254366004611548565b610c72565b34801561026557600080fd5b50610170610274366004611822565b610d66565b34801561028557600080fd5b5061028e610d90565b60405161011892919061184e565b3480156102a857600080fd5b506101416102b73660046118e9565b61116e565b3480156102c857600080fd5b506101706102d7366004611822565b600260209081526000928352604080842090915290825290205481565b610141610302366004611548565b611310565b6001602081905260009182526040909120805491810180546001600160a01b03909316926103349061191e565b80601f01602080910402602001604051908101604052809291908181526020018280546103609061191e565b80156103ad5780601f10610382576101008083540402835291602001916103ad565b820191906000526020600020905b81548152906001019060200180831161039057829003601f168201915b5050505050908060020180546103c29061191e565b80601f01602080910402602001604051908101604052809291908181526020018280546103ee9061191e565b801561043b5780601f106104105761010080835404028352916020019161043b565b820191906000526020600020905b81548152906001019060200180831161041e57829003601f168201915b5050505050908060030180546104509061191e565b80601f016020809104026020016040519081016040528092919081815260200182805461047c9061191e565b80156104c95780601f1061049e576101008083540402835291602001916104c9565b820191906000526020600020905b8154815290600101906020018083116104ac57829003601f168201915b505050600484015460058501546006860154600787015460089097015495969295919450925060ff80831692610100900416908a565b80600054811061052a5760405162461bcd60e51b815260040161052190611952565b60405180910390fd5b600082815260016020526040902080546001600160a01b031633146105895760405162461bcd60e51b815260206004820152601560248201527427b7363c9031b0b6b830b4b3b71031b932b0ba37b960591b6044820152606401610521565b6007810154610100900460ff16156105d55760405162461bcd60e51b815260206004820152600f60248201526e105b1c9958591e4818db185a5b5959608a1b6044820152606401610521565b600081600501541161061d5760405162461bcd60e51b81526020600482015260116024820152704e6f2066756e647320746f20636c61696d60781b6044820152606401610521565b60078101805461ffff1916610100179055600581015481546040516000916001600160a01b03169083908381818185875af1925050503d806000811461067f576040519150601f19603f3d011682016040523d82523d6000602084013e610684565b606091505b50509050806106c75760405162461bcd60e51b815260206004820152600f60248201526e151c985b9cd9995c8819985a5b1959608a1b6044820152606401610521565b82546040518381526001600160a01b039091169086907fa4eb50103b0591feb0bc913f479d92af5eb7ea33e8c397b49bab52ce6af26cb59060200160405180910390a35050505050565b6107196114e8565b81600054811061073b5760405162461bcd60e51b815260040161052190611952565b6000838152600160208181526040928390208351610140810190945280546001600160a01b031684529182018054918401916107769061191e565b80601f01602080910402602001604051908101604052809291908181526020018280546107a29061191e565b80156107ef5780601f106107c4576101008083540402835291602001916107ef565b820191906000526020600020905b8154815290600101906020018083116107d257829003601f168201915b505050505081526020016002820180546108089061191e565b80601f01602080910402602001604051908101604052809291908181526020018280546108349061191e565b80156108815780601f1061085657610100808354040283529160200191610881565b820191906000526020600020905b81548152906001019060200180831161086457829003601f168201915b5050505050815260200160038201805461089a9061191e565b80601f01602080910402602001604051908101604052809291908181526020018280546108c69061191e565b80156109135780601f106108e857610100808354040283529160200191610913565b820191906000526020600020905b8154815290600101906020018083116108f657829003601f168201915b5050509183525050600482015460208201526005820154604082015260068201546060820152600782015460ff8082161515608084015261010090910416151560a082015260089091015460c09091015291505b50919050565b600082116109b05760405162461bcd60e51b815260206004820152601060248201526f0476f616c206d757374206265203e20360841b6044820152606401610521565b6000811180156109c2575061016d8111155b610a015760405162461bcd60e51b815260206004820152601060248201526f24b73b30b634b210323ab930ba34b7b760811b6044820152606401610521565b86610a3f5760405162461bcd60e51b815260206004820152600e60248201526d151a5d1b19481c995c5d5a5c995960921b6044820152606401610521565b6000610a4e8262015180611994565b610a5890426119ab565b9050604051806101400160405280336001600160a01b031681526020018a8a8080601f016020809104026020016040519081016040528093929190818152602001838380828437600092019190915250505090825250604080516020601f8b0181900481028201810190925289815291810191908a908a9081908401838280828437600092019190915250505090825250604080516020601f8901819004810282018101909252878152918101919088908890819084018382808284376000920182905250938552505050602080830187905260408084018390526060840186905260016080850181905260a0850184905260c090940183905282548352838252909120835181546001600160a01b0319166001600160a01b03909116178155908301519091820190610b8b9082611a23565b5060408201516002820190610ba09082611a23565b5060608201516003820190610bb59082611a23565b506080820151600482015560a0820151600582015560c0820151600682015560e08201516007820180546101008086015115150261ff00199315159390931661ffff1990911617919091179055610120909101516008909101556000546040513391907fdc26653af5b99b2da33e2ad69ee6600d9aeccc82b034501db4338309615ca23890610c4b908d908d9089908890611ae3565b60405180910390a3600080549080610c6283611b23565b9190505550505050505050505050565b60003411610cb35760405162461bcd60e51b815260206004820152600e60248201526d135d5cdd08199d5b99081c1bdbdb60921b6044820152606401610521565b6064811015610cf35760405162461bcd60e51b815260206004820152600c60248201526b09ad2dc4062f040dac2e8c6d60a31b6044820152606401610521565b3360009081526003602052604081208054349290610d129084906119ab565b90915550503360008181526004602090815260409182902084905581513481529081018490527f626ed038a6cbfb2cc00320f8be90375749d85d9aac582eb90a50155c023de12a910160405180910390a250565b60008281526002602090815260408083206001600160a01b03851684529091529020545b92915050565b6060806000805b600054811015610df85760008181526001602052604090206007015460ff168015610dd357506000818152600160205260409020600601544211155b15610de65781610de281611b23565b9250505b80610df081611b23565b915050610d97565b5060008167ffffffffffffffff811115610e1457610e146119be565b604051908082528060200260200182016040528015610e4d57816020015b610e3a6114e8565b815260200190600190039081610e325790505b50905060008267ffffffffffffffff811115610e6b57610e6b6119be565b604051908082528060200260200182016040528015610e94578160200160208202803683370190505b5090506000805b6000548110156111625760008181526001602052604090206007015460ff168015610ed757506000818152600160205260409020600601544211155b15611150576000818152600160208181526040928390208351610140810190945280546001600160a01b03168452918201805491840191610f179061191e565b80601f0160208091040260200160405190810160405280929190818152602001828054610f439061191e565b8015610f905780601f10610f6557610100808354040283529160200191610f90565b820191906000526020600020905b815481529060010190602001808311610f7357829003601f168201915b50505050508152602001600282018054610fa99061191e565b80601f0160208091040260200160405190810160405280929190818152602001828054610fd59061191e565b80156110225780601f10610ff757610100808354040283529160200191611022565b820191906000526020600020905b81548152906001019060200180831161100557829003601f168201915b5050505050815260200160038201805461103b9061191e565b80601f01602080910402602001604051908101604052809291908181526020018280546110679061191e565b80156110b45780601f10611089576101008083540402835291602001916110b4565b820191906000526020600020905b81548152906001019060200180831161109757829003601f168201915b5050509183525050600482015460208201526005820154604082015260068201546060820152600782015460ff8082161515608084015261010090910416151560a082015260089091015460c090910152845185908490811061111957611119611b3c565b60200260200101819052508083838151811061113757611137611b3c565b60209081029190910101528161114c81611b23565b9250505b8061115a81611b23565b915050610e9b565b50919590945092505050565b8260005481106111905760405162461bcd60e51b815260040161052190611952565b600084815260016020526040902060070154849060ff166111e95760405162461bcd60e51b815260206004820152601360248201527243616d706169676e206e6f742061637469766560681b6044820152606401610521565b6001600160a01b0384166000908152600360209081526040808320546004909252909120548161124e5760405162461bcd60e51b815260206004820152601060248201526f139bc81b585d18da1a5b99c81c1bdbdb60821b6044820152606401610521565b6000606461125c8388611994565b6112669190611b52565b9050828111156112735750815b6001600160a01b0387166000908152600360205260408120805483929061129b908490611b74565b9091555050600088815260016020526040812060050180548392906112c19084906119ab565b90915550506040518181526001600160a01b0388169089907fc33f05ab6b730b557a968650cf841db53fea07b129894afda4b050b9c258ab6a9060200160405180910390a35050505050505050565b8060005481106113325760405162461bcd60e51b815260040161052190611952565b600082815260016020526040902060070154829060ff1661138b5760405162461bcd60e51b815260206004820152601360248201527243616d706169676e206e6f742061637469766560681b6044820152606401610521565b600034116113d25760405162461bcd60e51b81526020600482015260146024820152730446f6e6174696f6e206d757374206265203e20360641b6044820152606401610521565b6000838152600160205260409020600601544211156114245760405162461bcd60e51b815260206004820152600e60248201526d10d85b5c185a59db88195b99195960921b6044820152606401610521565b6000838152600160209081526040808320600283528184203385529092528220549091036114645760088101805490600061145e83611b23565b91905055505b3481600501600082825461147891906119ab565b90915550506000848152600260209081526040808320338452909152812080543492906114a69084906119ab565b9091555050604051348152339085907f0b5b4c52969ff7329ecf7ee536409fda87812b15a8622bc6e8cdeab3aee14a269060200160405180910390a350505050565b60405180610140016040528060006001600160a01b03168152602001606081526020016060815260200160608152602001600081526020016000815260200160008152602001600015158152602001600015158152602001600081525090565b60006020828403121561155a57600080fd5b5035919050565b6000815180845260005b818110156115875760208185018101518683018201520161156b565b506000602082860101526020601f19601f83011685010191505092915050565b6001600160a01b038b168152610140602082018190526000906115cc8382018d611561565b905082810360408401526115e0818c611561565b905082810360608401526115f4818b611561565b6080840199909952505060a081019590955260c085019390935290151560e0840152151561010083015261012090910152949350505050565b80356001600160a01b038116811461164457600080fd5b919050565b60006020828403121561165b57600080fd5b6116648261162d565b9392505050565b80516001600160a01b031682526000610140602083015181602086015261169482860182611561565b915050604083015184820360408601526116ae8282611561565b915050606083015184820360608601526116c88282611561565b9150506080830151608085015260a083015160a085015260c083015160c085015260e08301516116fc60e086018215159052565b50610100838101511515908501526101209283015192909301919091525090565b602081526000611664602083018461166b565b60008083601f84011261174257600080fd5b50813567ffffffffffffffff81111561175a57600080fd5b60208301915083602082850101111561177257600080fd5b9250929050565b60008060008060008060008060a0898b03121561179557600080fd5b883567ffffffffffffffff808211156117ad57600080fd5b6117b98c838d01611730565b909a50985060208b01359150808211156117d257600080fd5b6117de8c838d01611730565b909850965060408b01359150808211156117f757600080fd5b506118048b828c01611730565b999c989b509699959896976060870135966080013595509350505050565b6000806040838503121561183557600080fd5b823591506118456020840161162d565b90509250929050565b6000604082016040835280855180835260608501915060608160051b8601019250602080880160005b838110156118a557605f1988870301855261189386835161166b565b95509382019390820190600101611877565b50508584038187015286518085528782019482019350915060005b828110156118dc578451845293810193928101926001016118c0565b5091979650505050505050565b6000806000606084860312156118fe57600080fd5b8335925061190e6020850161162d565b9150604084013590509250925092565b600181811c9082168061193257607f821691505b60208210810361096757634e487b7160e01b600052602260045260246000fd5b60208082526012908201527110d85b5c185a59db881b9bdd08199bdd5b9960721b604082015260600190565b634e487b7160e01b600052601160045260246000fd5b8082028115828204841417610d8a57610d8a61197e565b80820180821115610d8a57610d8a61197e565b634e487b7160e01b600052604160045260246000fd5b601f821115611a1e57600081815260208120601f850160051c810160208610156119fb5750805b601f850160051c820191505b81811015611a1a57828155600101611a07565b5050505b505050565b815167ffffffffffffffff811115611a3d57611a3d6119be565b611a5181611a4b845461191e565b846119d4565b602080601f831160018114611a865760008415611a6e5750858301515b600019600386901b1c1916600185901b178555611a1a565b600085815260208120601f198616915b82811015611ab557888601518255948401946001909101908401611a96565b5085821015611ad35787850151600019600388901b60f8161c191681555b5050505050600190811b01905550565b606081528360608201528385608083013760006080858301015260006080601f19601f870116830101905083602083015282604083015295945050505050565b600060018201611b3557611b3561197e565b5060010190565b634e487b7160e01b600052603260045260246000fd5b600082611b6f57634e487b7160e01b600052601260045260246000fd5b500490565b81810381811115610d8a57610d8a61197e56fea2646970667358221220f4f5a6f7e35c3ab728c767624588d6878a2336ac0fac993f03933de66bfd0bd964736f6c63430008130033",
  "linkReferences": {},
  "deployedLinkReferences": {}
}